:020000040800F2
:10000000E0AF002419040008E34800087D4600081A
:10001000E14800084F070008915600080000000062
:10002000000000000000000000000000590300086C
:10003000B90B000800000000B5030008B94E000825
:1000400033040008330400083304000833040008B4
:1000500033040008330400083304000833040008A4
:100060003304000833040008330400085107000873
:100070005D070008690700087507000833040008D9
:100080003304000833040008330400083304000874
:100090003304000833040008330400083304000864
:1000A0003304000833040008330400083304000854
:1000B0003304000833040008330400083304000844
:1000C0003304000833040008330400086D4B0008B3
:1000D0003304000833040008330400088556000880
:1000E0003304000833040008000000003304000853
:1000F0003304000833040008330400083304000804
:1001000033040008330400083304000833040008F3
:1001100033040008330400083304000833040008E3
:1001200033040008330400083304000833040008D3
:1001300033040008330400083304000833040008C3
:1001400000000000000000000000000000000000AF
:1001500033040008330400083304000833040008A3
:100160003304000833040008330400083304000893
:1001700033040008330400083304000800000000C2
:100180003304000833040008330400083304000873
:100190003304000833040008330400083304000863
:1001A0003304000833040008330400083304000853
:1001B0003304000833040008330400083304000843
:1001C0003304000833040008330400083304000833
:1001D0003304000833040008330400083304000823
:1001E0003304000833040008330400083304000813
:1001F0003304000833040008330400083304000803
:1002000033040008330400083304000833040008F2
:1002100033040008330400083304000833040008E2
:100220003304000833040008330400080000000011
:100230003304000833040008000000003304000801
:1002400033040008330400083304000833040008B2
:1002500033040008330400083304000833040008A2
:100260003304000833040008330400083304000892
:1002700033040008330400083304000800000000C1
:1002800033040008330400083304000800000000B1
:10029000000000003304000800F002F800F04CF801
:1002A0000AA090E8000C82448344AAF10107DA45D1
:1002B00001D100F041F8AFF2090EBAE80F0013F0D7
:1002C000010F18BFFB1A43F001031847186D000017
:1002D000386D00000A4410F8014B14F00F0508BFF8
:1002E00010F8015B240908BF10F8014B6D1E05D002
:1002F00010F8013B6D1E01F8013BF9D1641E03D0DB
:10030000641E01F8015BFBD19142E4D37047000009
:100310000023002400250026103A28BF78C1FBD80E
:10032000520728BF30C148BF0B6070471FB506F0A9
:1003300023FE1FBD10B510BD00F0D0F91146FFF728
:10034000F5FF05F0B7F900F0EEF903B4FFF7F2FF9F
:1003500003BC00F0F5F900002C4B19680868B0E800
:10036000F04F80F30988BFF36F8F4FF0000080F3E8
:10037000118870470000000008480068006880F39A
:1003800008884FF0000080F3148862B661B6BFF3AE
:100390004F8FBFF36F8F00DF00BF00BF08ED00E09D
:1003A000DFF80C00016841F470010160704700BF84
:1003B00088ED00E0EFF30980BFF36F8F134B1A68ED
:1003C0001EF0100F08BF20ED108A20E9F04F1060DA
:1003D00009B44FF0500080F31188BFF34F8FBFF383
:1003E0006F8F06F095F84FF0000080F3118809BC7C
:1003F00019680868B0E8F04F1EF0100F08BFB0ECA5
:10040000108A80F30988BFF36F8F70474003002480
:10041000EFF305807047000009488047094800470E
:10042000FEE7FEE7FEE7FEE7FEE7FEE7FEE7FEE7A4
:10043000FEE7FEE704480549054A064B7047000001
:10044000854F000899020008E04F0024E0AF002427
:10045000E06F0024E06F002453EA020C00F0698092
:100460002DE9F04B4FF00006002B1FBFB3FA83F5C8
:1004700003FA05F424FA05F65E4012BF1643B2FAF9
:1004800082F502FA05F4C5F120051EBF22FA05FC2B
:1004900044EA0C04203556EA044C4FEA144418BFD1
:1004A000641C4FF000084FF00009904271EB030C00
:1004B00039D3002919BFB1FA81F701FA07F6B0FA6A
:1004C00080F700FA07F6C7F120071EBF20FA07FCE5
:1004D00046EA0C062037B6FBF4FCA7EB0507103FF5
:1004E00007F01F0BCBF120060CFA0BFB2CFA06F6DB
:1004F00044BFB3460026202FA4BF5E464FF0000B3A
:100500005BEA060C08BF4FF0010B19EB0B09ABFBC4
:10051000027C48EB0608C01B06FB02CC0BFB03CC9D
:1005200071EB0C01C1E70B46024641464846BDE867
:10053000F08B13B54FF000004FF00001AFF30080D7
:10054000BDE81C407047032A40F2308010F0030CD5
:1005500000F0158011F8013BBCF1020F624498BF16
:1005600011F801CB00F8013B38BF11F8013BA2F1B3
:10057000040298BF00F801CB38BF00F8013B11F02E
:10058000030300F05780083AC0F0088051F8043B9C
:10059000083A51F804CBA0E80810F5E7121D5CBF3B
:1005A00051F8043B40F8043BAFF30080D20724BF6E
:1005B00011F8013B11F801CB48BF11F8012B24BF02
:1005C00000F8013B00F801CB48BF00F8012B704751
:1005D00002F0FF0343EA032242EA024200F05EB85F
:1005E0004FF0000200B5134694469646203922BFCC
:1005F000A0E80C50A0E80C50B1F12001BFF4F7AF17
:10060000090728BFA0E80C5048BF0CC05DF804EBF8
:10061000890028BF40F8042B08BF704748BF20F866
:10062000022B11F0804F18BF00F8012B7047704764
:100630007047704710B5203AC0F00B80B1E81850F1
:10064000203AA0E81850B1E81850A0E81850BFF4BC
:10065000F5AF5FEA027C24BFB1E81850A0E818505B
:1006600044BF18C918C0BDE810405FEA827C24BFAF
:1006700051F8043B40F8043B08BF7047D20728BF3D
:1006800031F8023B48BF11F8012B28BF20F8023B8C
:1006900048BF00F8012B70474FF000020429C0F05A
:1006A000128010F0030C3FF49DAFCCF1040CBCF1B0
:1006B000020F18BF00F8012BA8BF20F8022BA1EBF6
:1006C0000C01FFF78FBF5FEAC17C24BF00F8012B4C
:1006D00000F8012B48BF00F8012B7047754600F069
:1006E0002BF8AE4605006946534620F007008546C4
:1006F00018B020B5FFF79EFEBDE820404FF0000681
:100700004FF000074FF000084FF0000B21F00701F9
:10071000AC46ACE8C009ACE8C009ACE8C009ACE83C
:10072000C0098D46704710B50446AFF300802046DF
:10073000BDE81040FFF709BE00487047804F002415
:1007400001491820ABBEFEE7260002007047FEE715
:10075000014800F077BB0000BC050024014800F010
:1007600071BB000034060024014800F06BBB0000A0
:1007700040040024014800F065BB0000B8040024D8
:10078000294A016891423AD0274A1832914236D01C
:10079000254A3032914232D0234A483291422ED0FB
:1007A000214A603291422AD01F4A7832914226D0A3
:1007B0001D4A9032914222D01B4AA83291421ED04B
:1007C0001A4A91421BD0194A1832914217D0174A3F
:1007D0003032914213D0154A483291420FD0134A19
:1007E000603291420BD0114A7832914207D00F4AC1
:1007F0009032914203D00D4AA832914211D1CAB22F
:100800001823103AB2FBF3F26FF30901032A02F046
:100810000703074AD25CC26500D9091D81650846F5
:10082000704721F0FF01F9E7100002401004024078
:10083000A86F000830B5224A012301689142CAB26C
:100840001BD01F4C1434A14217D01D4C2834A14298
:1008500013D01B4C3C34A1420FD0194C5034A14250
:100860000BD0174C6434A14207D0154C7834A14208
:1008700003D0134C8C34A1420CD11421114C083AF2
:10088000B2FBF1F10F4A803201F01F0504EB810148
:10089000AB4010E00C4D1824103A0D44B2FBF4F1BB
:1008A000A82D00D80831094A01F01F0402EB81018C
:1008B000064AA3408032603080E80E0030BD000060
:1008C0000854025800580258F0FBFDBF00080240CF
:1008D00010B50279531E072B2DD8174C0168A14281
:1008E0001BD0154C1434A14217D0134C2834A1420C
:1008F00013D0114C3C34A1420FD00F4C5034A142C4
:100900000BD00D4C6434A14207D00B4C7834A1427B
:1009100003D0094C8C34A14203D10849074C44311F
:1009200002E00749064C443104EB8202C0E91B2176
:1009300001219940416710BD08540258FC580258E3
:10094000FC08024010B583694FF0C074826A01460A
:10095000002053B1B3F5005F15D072B1012A0CD05D
:10096000022A0AD0032A09D104E01AB1012A06D0CA
:10097000022A03D1C96AC90100D5012010BDC96A84
:10098000A142FAD010BD002AF7D0012AF2D0022AE3
:10099000F3D0032AF3D010BD2DE9F04F804E804FE5
:1009A000DFF8FC911836DFF8F8A148370468856D48
:1009B0000AF1300ADFF8ECB14C45DFF8ECC1DFF8A2
:1009C000ECE16DD0B4426BD0544569D0BC4267D0E5
:1009D000DFF8D081A8F11808444561D05C455FD0AC
:1009E00064455DD074455BD0DFF8C481444557D081
:1009F000DFF8BC8108F11808444551D0DFF8B08118
:100A000008F1300844454BD0DFF8A48108F14808CC
:100A1000444545D0DFF8988108F1600844453FD04F
:100A2000DFF88C8108F17808444539D0DFF88081FF
:100A300008F19008444533D0DFF8748108F1A80824
:100A400044452DD0DFF86C81444529D0DFF864811E
:100A500008F11408444523D0DFF8588108F128082C
:100A600044451DD0DFF84C8108F13C08444517D0BF
:100A7000DFF8408108F15008444511D0DFF8348197
:100A800008F1640844450BD0DFF8288108F17808A4
:100A9000444505D0DFF81C8108F18C08444509D194
:100AA000D0E91948C4F80480C46E1CB1D0E91C48D0
:100AB000C4F8048004684C452ED0B4422CD0544570
:100AC0002AD0BC4228D0374E183EB44224D05C45D0
:100AD00022D0644520D074451ED0354EB4421BD080
:100AE000334E1836B44217D0314E3036B44213D09C
:100AF0002F4E4836B4420FD02D4E6036B4420BD044
:100B00002B4E7836B44207D0294E9036B44203D0EB
:100B1000274EA836B44215D190F85C603F2406F009
:100B20001F06B440AC600468256825F48025256064
:100B30002EE09A600068C160BDE8F08F996000689F
:100B4000C260F9E71B4EB4421BD01A4E1436B442B1
:100B500017D0184E2836B44213D0164E3C36B44245
:100B60000FD0144E5036B4420BD0124E6436B442FD
:100B700007D0104E7836B44203D00E4E8C36B442B5
:100B8000DAD190F85C60012406F01F06B4406C6076
:100B9000046863608368402B0368CFD1C9E7000015
:100BA0001000024088000240A0000240B80002404D
:100BB0001004024008540258704770472DE9F05F56
:100BC00028B190F83510022904D080214165012018
:100BD000BDE8F09F904C904B0168183C18338E4A4A
:100BE000DFF83C92A1428D4CDFF838E28E4FDFF8FF
:100BF0003CB2DFF83CA28F4D8F4E31D091422FD0C6
:100C000099422DD0A1422BD0494529D0714527D0FA
:100C1000B94225D0DFF810C20CF1180C61451FD085
:100C2000DFF808C2ACF1600C614519D0DFF8FCC1F7
:100C3000ACF1480C614513D0DFF8F0C1ACF1300CD9
:100C400061450DD0DFF8E4C1ACF1180C614507D067
:100C5000594505D0514503D0A94201D0B1422CD10C
:100C6000DFF8B4C14FF0040880F83580ACF1180CFF
:100C700061451DD091421BD0994219D0A14217D095
:100C8000494515D0714513D0B94211D06648183086
:100C900081420DD065486038814209D063484838A8
:100CA000814205D061483038814201D05F48183810
:100CB000086820F001000860ABE0D1F800C02CF01B
:100CC0000E08DFF854C1C1F80080ACF1180C0168BF
:100CD000614527D0914225D0994223D0A14221D00D
:100CE00049451FD071451DD0B9421BD0DFF838C12E
:100CF0000CF1180C614515D0DFF830C1ACF1600C77
:100D000061450FD0DFF824C1ACF1480C614509D032
:100D1000DFF818C1ACF1300C614503D0DFF80CC12D
:100D2000ACF1180CD1F800C02CF0010CC1F800C0D7
:100D3000DFF8E4804FF0010C0168A8F11808414584
:100D400046D0914244D0994242D0A14240D0494538
:100D50003ED071453CD0B9423AD0334A1832914224
:100D600036D0324A603A914232D0304A483A9142C3
:100D70002ED02E4A303A91422AD02C4A183A91422B
:100D800026D0594524D0514522D0A94220D0B14285
:100D90001ED02A4A91421BD0284A1432914217D0C1
:100DA000264A2832914213D0244A3C3291420FD035
:100DB000224A503291420BD0204A6432914207D0ED
:100DC0001E4A7832914203D01C4A8C32914218D18B
:100DD000016E0A6822F480720A6090F85C20816DCE
:100DE00002F01F020CFA02F24A60D0E919124A60BE
:100DF000C16E31B10A6822F480720A60D0E91C1217
:100E00004A600022016D80F8342080F835C001B1BD
:100E100088470020DCE6000028000240580002401D
:100E20007000024088000240A000024070040240AE
:100E300088040240A0040240B8040240085402584A
:100E4000406D70472DE9FC5F0446FA4E0020DFF844
:100E5000E48300904FF41652F74808F11808A56D86
:100E6000DFF8D0A3DFF8CCB301680AF1300A2068BC
:100E70000BF1480BB1FBF2F1B04201912F68D5F8AC
:100E800000C0DFF8B89336D04146884233D0504591
:100E900031D058452FD0E749603188422BD0E54901
:100EA0007831884227D0E3499031884223D0E14904
:100EB000A83188421FD048451DD0E04918318842EA
:100EC00019D0DE493031884215D0DC4A4832904290
:100ED00011D0DA49603188420DD0DFF860E30EF1BD
:100EE000780E704507D0D54B9033984203D0D34944
:100EF000A83188427ED194F85C20082102F01F02BC
:100F000001FA02F23A424BD0B04233D0404531D0E0
:100F100050452FD058452DD0C64A6032904229D036
:100F2000C44A7832904225D0C24A9032904221D0B1
:100F3000C04AA83290421DD048451BD0BF4A183243
:100F4000904217D0BD4A3032904213D0BB4A48324B
:100F500090420FD0B94A603290420BD0B74A7832F3
:100F6000904207D0B54A9032904203D0B34AA8329B
:100F7000904203D1026802F0040202E0026802F02B
:100F800008026AB1026822F00402026094F85C0070
:100F900000F01F008140A960606D40F001006065B5
:100FA00094F85C00012100F01F008140394241D0DB
:100FB0002068B04235D0404533D0504531D05845F7
:100FC0002FD09C4A603290422BD09A4A783290427D
:100FD00027D0984A9032904223D0964AA832904225
:100FE0001FD048451DD0954A1832904219D0934AD7
:100FF000303200E0B2E1904213D0904A4832904241
:101000000FD08E4A603290420BD08C4A7832904298
:1010100007D08A4A9032904203D0884AA832904240
:101020007ED1406910F0800F04D0A960606D40F05F
:101030000200606594F85C00042100F01F0081400C
:1010400039423FD02068B04233D0404531D050457E
:101050002FD058452DD0774A6032904229D0754A1A
:101060007832904225D0734A9032904221D0714A12
:10107000A83290421DD048451BD0704A1832904289
:1010800017D06E4A3032904213D06C4A48329042A8
:101090000FD06A4A603290420BD0684A7832904250
:1010A00007D0664A9032904203D0644AA8329042F8
:1010B0004FD1006810F0020F04D0A960606D40F0BD
:1010C0000400606594F85C00102100F01F0081406E
:1010D000394259D02068B04235D0404533D05045D0
:1010E00031D058452FD0534A603290422BD0514ACC
:1010F0007832904227D04F4A9032904223D04D4AC6
:10110000A83290421FD048451DD04C4A1832904218
:1011100019D04A4A3032904215D0484A483200E04D
:1011200015E090420FD0454A603290420BD0434ABE
:101130007832904207D0414A9032904203D03F4AE1
:10114000A832904207D1006800F0080006E000686D
:1011500070E70068B6E7006800F00400A0B1A9607D
:1011600020680168490304D50068000308D5A16C14
:1011700007E00168C90503D4016821F00801016096
:10118000216C09B12046884794F85C00202100F0CA
:101190001F008140394278D02068B04233D04045AA
:1011A00031D050452FD058452DD0224A6032904240
:1011B00029D0204A7832904225D01E4A903290425F
:1011C00021D01C4AA83290421DD048451BD01B4A52
:1011D0001832904217D0194A3032904213D0174A31
:1011E000483290420FD0154A603290420BD0134AD9
:1011F0007832904207D0114A9032904203D00F4A81
:10120000A832904203D1006800F0100002E00068AC
:1012100000F00200A0B3A96094F83500042820680B
:1012200001680DD049037DD50068000329D4616CA5
:1012300028E000001000024038030024100402409F
:1012400021F0160101602068416921F080014161AF
:10125000206C08B9A06C20B12068016821F0080159
:10126000016094F85C303F21002203F01F0301204D
:101270009940A96084F8342084F83500216D66E037
:1012800003E0E16B09B120468847606D00287DD0FE
:10129000606DC0075AD02068042184F83510B04230
:1012A0002BD0404529D0504527D0584525D09E49C0
:1012B000884222D09C49183188421ED09A49303148
:1012C00088421AD098494831884216D0484514D0EF
:1012D0009649884211D09549183188420DD09349DA
:1012E0003031884209D091494831884205D08F4930
:1012F0006031884201D08D497831016821F00101C7
:10130000016020680099019A491C0091914202D81D
:101310000168C907F6D1002184F834100068C007BD
:1013200011D000E001E003200EE00168C905A8D457
:1013300003680022012123F01003036084F83420A5
:1013400084F835109DE7012084F83500E16C002910
:101350001CD002B02046BDE8F05F084774498842BF
:101360001DD073491431884219D0714928318842FF
:1013700015D06F493C31884211D06D4950318842B7
:101380000DD06B496431884209D000E086E068499D
:101390007831884203D066498C3188427ED194F8F6
:1013A0005C800427016808F01F0807FA08F717EAAD
:1013B0000C0F009746D04F0744D500980F04686083
:1013C00003D5C8033CD4A16CC1E7880638D4206893
:1013D000B0422DD054494839884229D0504527D0B1
:1013E000584525D05049884222D04F49183188426B
:1013F0001ED04D49303188421AD04B49483188427D
:1014000016D0484514D04949884211D0474918316F
:1014100088420DD090420BD044494831884207D0D1
:10142000704505D0984203D040499031884203D19D
:10143000016821F0080102E0016821F00401016067
:10144000216C84E7022707FA08F717EA0C0F0097C8
:101450004ED08F074CD500980F04686003D5C803A1
:1014600044D4616C73E7880640D42068B0422FD022
:101470002D49483988422BD0504529D0584527D08E
:101480002949884224D028491831884220D0264949
:10149000303188421CD02449483100E041E0884284
:1014A00016D0484514D02149884211D01F4918311F
:1014B00088420DD090420BD01C494831884207D059
:1014C000704505D0984203D018499031884203D125
:1014D000016821F0140102E0016821F00A010160B5
:1014E000002184F83410012084F83500E16B2EE7E8
:1014F000082202FA08F212EA0C0F12D0090710D5DE
:10150000016821F00E01016094F85C1001200022B6
:1015100001F01F0100FA01F16960606584F8342070
:1015200012E7BDE8FC9F0000700002402804024062
:10153000085402582DE9F05F044600F04FFC002CDF
:1015400007467DD0E34E022120684FF00308DFF804
:1015500088934FF00005DFF884A3B042DFF880B332
:1015600034D0DC4A1832904230D048452ED0504515
:101570002CD058452AD0DA4A1832904226D0D84A80
:101580003032904222D0D64A483290421ED0D54ABC
:1015900090421BD0D34A1832904217D0D14A3032F1
:1015A000904213D0CF4A483290420FD0CD4A603299
:1015B00090420BD0CB4A7832904207D0C94A903241
:1015C000904203D0C74AA83290427DD184F834506B
:1015D00084F83510B0422ED0BE49183188422AD046
:1015E000484528D0504526D0584524D0BC4918310C
:1015F000884220D0BA49303188421CD0B84948319D
:10160000884218D0B749884215D0B6491831884267
:1016100011D0B449303188420DD0B24948318842A6
:1016200009D0B0496031884205D0AE49783188424E
:1016300001D0AC499031016821F00101016008E05E
:1016400027E100BF00F0CAFBC01B052801D92021FB
:101650001CE120680068C007F4D104F1080021688B
:10166000D4E9053C8E4685C809681043D4E90728AB
:101670001F43636A38439C4F40EA0C0010433940D3
:1016800040EA0800042B40EA010003D1D4E90B1220
:1016900011430843954909686FF30F01B1F1005FE9
:1016A0000FD36168A1F12902052A08D9163A032A45
:1016B00005D9083A012A02D94F39032901D840F443
:1016C0008010CEF8000000E023E02068676A4069DF
:1016D000042F20F0070047EA00070DD1D4E90A01E2
:1016E000074349B12046FFF72DF928B14020606536
:1016F000012184F83510CCE0206847612046FFF7CF
:101700003FF894F85C203F2102F01F029140816075
:1017100054E0774A90421BD0754B1433984217D04F
:10172000734B2833984213D0714B3C3398420FD0FF
:101730006F4B503398420BD06D4B6433984207D0B7
:101740006B4B7833984203D0694B8C3398427DD1F0
:10175000684B84F8345084F835100168A26801EAB7
:10176000030E402A73D0802A72D00022D4E9037875
:10177000D4E9053142EAD70242EAD8085C4AD4E902
:10178000077C48EAD30848EAD10141EAD70152422E
:1017900041EA1C11142341EA0E0101602068104443
:1017A000B0FBF3F08000E0652046FEF7E9FF94F817
:1017B0005C20012102F01F02914041602068B0428C
:1017C00057D044491831884253D0484551D05045EC
:1017D0004FD058454DD042491831884249D04049F0
:1017E0003031884245D03E494831884241D03D4958
:1017F00088423ED03B49183188423AD0394930318D
:10180000884236D037494831884232D03549603134
:1018100088422ED03349783188422AD031499031DC
:10182000884226D02F49A831884222D030498842A8
:101830001FD02F49143188421BD02D4928318842AE
:1018400017D02B493C31884213D002E01DE017E04D
:1018500018E02749503188420BD02549643188422D
:1018600007D023497831884203D021498C318842FE
:1018700029D12046FEF7DEFFA06880280CD00CE0BE
:10188000102273E74FF4804270E74021616584F8CD
:1018900035800120BDE8F09F6560216E20790860E9
:1018A000D4E9190141606068401E072808D8204625
:1018B000FFF70EF8E06E0560D4E91C01416002E01C
:1018C000E566256765670120656584F835000020B9
:1018D000E0E70000100002404000024058000240D3
:1018E00070000240100402403F8010FE0010005CB7
:1018F000085402580F00FEFF2DE9F84F04008C46F3
:101900004FF00000009013D094F83400012811D05B
:1019100094F835500120002184F83400012D0BD0BB
:1019200084F83410C202009062650098BDE8F88F18
:101930000120FBE70220F9E78C4D0226206884F89D
:101940003560A8428A4D61658A4E8B4FDFF82C8244
:10195000DFF82C92DFF82CA2DFF82CB226D0A842B8
:1019600024D0B04222D0B84220D040451ED04845B5
:101970001CD050451AD0584518D08449884215D0FB
:1019800082491831884211D08049303188420DD0C7
:101990007E494831884209D07C496031884205D06F
:1019A0007A497831884201D078499031016821F034
:1019B0000101016061462046FEF7EEFF6B49206899
:1019C00088422CD0A8422AD0B04228D0B84226D093
:1019D000404524D0484522D0504520D058451ED0FF
:1019E0006A4A90421BD0694A1832904217D0674A1F
:1019F0003032904213D0654A483290420FD0634A49
:101A0000603290420BD0614A7832904207D05F4AF0
:101A10009032904203D05D4AA83290420CD10268C5
:101A200022F01E0242F016020260206C88B120688B
:101A3000026842F008020BE0026822F00E0242F057
:101A40000A020260206C20B12068026842F00402A1
:101A50000260206888424BD0A84249D0B04247D0AB
:101A6000B84245D0404543D0484541D050453FD08D
:101A700058453DD0454A90423AD0444A18329042A7
:101A800036D0424A3032904232D0404A48329042B8
:101A90002ED03E4A603290422AD03C4A7832904260
:101AA00026D03A4A9032904222D0384AA832904208
:101AB0001ED0374A90421BD0354A1432904217D07C
:101AC000334A2832904213D0314A3C3290420FD0F0
:101AD0002F4A503290420BD02D4A6432904207D0A8
:101AE0002B4A7832904203D0294A8C3290420DD151
:101AF000206E0268D20303D5026842F4807202604D
:101B0000E06E18B1026842F4807202602068884278
:101B100026D0A84224D0B04222D0B84220D040459E
:101B20001ED048451CD050451AD0584518D01749EA
:101B3000884215D015491831884211D013493031E7
:101B400088420DD011494831884209D00F4960318F
:101B5000884205D00D497831884201D00B49903137
:101B6000016841F001010160DFE600001000024061
:101B7000280002404000024058000240700002402D
:101B800088000240A0000240B80002401004024059
:101B9000085402582DE9FC4F01257E4C00234FF0DC
:101BA000030A4FF0B04E4FF00F0BEBE005FA03F6CF
:101BB00037403A0077D04F68012F05D0022F03D06D
:101BC000112F01D0122F1AD187684FEA4308D1F89C
:101BD0000CC00AFA08F927EA09070CFA08FC4CEAD3
:101BE000070CC0F808C0476891F804C0B743CCF3AD
:101BF000001C0CFA03FC4CEA070CC0F804C0C668D1
:101C00004FEA430CD1F80880E1460AFA0CF7BE43CC
:101C1000019708FA09F848EA0608C0F80C804E68EF
:101C2000022E01D0122E12D1DE084FEA437C00EBC7
:101C3000860600960F69366A4FEADC6C0BFA0CF8E0
:101C400007FA0CF726EA08063743009E37620E793A
:101C50000768DDF804C006F0030606FA09F627EA6D
:101C60000C073E4306604E68F6001CD54A4E3768A6
:101C700047F00207376036689F0706F002060096B5
:101C800023F0030606F1B046B1463F0FD6F80864CC
:101C9000DFF808810BFA07FC404526EA0C0603D161
:101CA0004FF0000C41E06CE0DFF8F4C0604502D179
:101CB0004FF0010C39E0DFF8ECC0604502D14FF085
:101CC000020C32E0DFF8E0C0604502D14FF0030CB7
:101CD0002BE0DFF8D8C0604502D14FF0040C24E0BF
:101CE000DFF8CCC0604502D14FF0050C1DE0DFF8F5
:101CF000C4C0604502D14FF0060C16E0DFF8B8C052
:101D0000604502D14FF0070C0FE0DFF8B0C060452E
:101D100002D14FF0080C08E0DFF8A4C0604502D102
:101D20004FF0090C01E04FF00A0C0CFA07FC4CEAEA
:101D3000060CC9F808C426684F6826EA0206FF03A5
:101D400000D51643266066684F6826EA0206BF0380
:101D500000D516436660D1F804C07646DEF8007000
:101D60005FEACC2C27EA020700D517433760D1F889
:101D700004C077685FEA8C2C27EA020700D5174376
:101D800077605B1C0A681746DA407FF40FAFBDE846
:101D9000FC8F000080000058F444025800000258F4
:101DA0000004025800080258000C025800100258A3
:101DB0000014025800180258001C02580020025853
:101DC000002402580AB1816170470904FBE7000052
:101DD00001480068000C70470010005C01488068F2
:101DE000704700002C0300240248816802781144E7
:101DF000816070472C030024032010B500F086F8A2
:101E000000F0E8FF0F4A104914681368C4F3032276
:101E100003F00F038A5CC95C02F01F0201F01F018E
:101E2000D0400A4A20FA01F11160094908600020F7
:101E300000F010F808B1012010BD00F02BF80020D0
:101E400010BD000018440258C86F00083C0300246D
:101E50003803002470B50D4D04462878A0B14FF426
:101E60007A71B1FBF0F00A490968B1FBF0F002F0B9
:101E700090F948B9102C07D200222146501E00F0DC
:101E800025F800206C6070BD012070BD2C0300247B
:101E900038030024054808B5016841F002010160DB
:101EA000006800F00200009008BD0000F4440258F1
:101EB000002809DB410900F01F028900012001F11F
:101EC000E0219040C1F80001704700000E4BF0B4D3
:101ED0001B680D46C3F30223C3F10706042E00D985
:101EE0000426191D072901D2002300E0DB1E01246E
:101EF00004FA06F19C40491E2940641E9940144092
:101F00002143F0BC03F0C5BB0CED00E0064900F036
:101F1000070210B54FF6FF040868044B204040EA62
:101F200002201843086010BD0CED00E00000FA0527
:101F3000134970B50A68D243520705D5096801F004
:101F40000701814213D118E00A6822F00702024318
:101F50000A60FFF743FF0A4D4FF47A760446083DC6
:101F600007E000BFFFF73AFF001BB04201D9012094
:101F700070BD2868C0438004F4D4002070BD000008
:101F80000C48025810B500F0DFFE05490968054A03
:101F9000C1F30211515C01F01F01C84010BD0000E7
:101FA00020440258C86F0008494930B5484C0B1D01
:101FB0000A68143409681D68246802F00303C5F335
:101FC0000012C1F30531C4F3CC04002914FB02F262
:101FD00000EE102AF8EE400A75D03F4A9FED3D1AF8
:101FE000B7EE000A6BB1DFED3D1A012B01D0022BD9
:101FF00064D002EE101A1168F8EE422A81EEA22A8D
:1020000021E0334C283C23689B0612D5344B2468CE
:1020100001EE901A1168C4F3C104F8EE612AE3409E
:1020200001EE903AC1F30801F8EE611A81EEA22A9E
:102030000BE001EE901ADFED2B2A00BFF8EE611ADB
:10204000116882EEA12AC1F3080101EE901A11680D
:10205000F8EE611A40EE811A71EE800A62EE200AF3
:10206000C1F3462101EE101AB8EE411A31EE001A02
:10207000C0EE811ABCEEE11A80ED001A1168C1F3BE
:10208000064101EE101AB8EE411A31EE001AC0EE08
:10209000811ABCEEE11A80ED011A1168C1F30661E4
:1020A00001EE101AB8EE411A31EE000A80EE801AE5
:1020B000BCEEC10A80ED020A30BD04E001EE901AC8
:1020C000DFED092ABAE70021016041608160F3E792
:1020D0002844025800000039384402580024744A49
:1020E0000090D0030024744C0024F44A494930B5D0
:1020F000484C0B1D0A681C3409681D68246802F0EE
:102100000303C5F30022C1F30551C4F3CC04002935
:1021100014FB02F200EE102AF8EE400A75D03F4A96
:102120009FED3D1AB7EE000A6BB1DFED3D1A012BB2
:1021300001D0022B64D002EE101A1168F8EE422A88
:1021400081EEA22A21E0334C283C23689B0612D55D
:10215000344B246801EE901A1168C4F3C104F8EE00
:10216000612AE34001EE903AC1F30801F8EE611AEA
:1021700081EEA22A0BE001EE901ADFED2B2A00BFC0
:10218000F8EE611A116882EEA12AC1F3080101EE8E
:10219000901A1168F8EE611A40EE811A71EE800A09
:1021A00062EE200AC1F3462101EE101AB8EE411A80
:1021B00031EE001AC0EE811ABCEEE11A80ED001A71
:1021C0001168C1F3064101EE101AB8EE411A31EE62
:1021D000001AC0EE811ABCEEE11A80ED011A1168F6
:1021E000C1F3066101EE101AB8EE411A31EE000A91
:1021F00080EE801ABCEEC10A80ED020A30BD04E018
:1022000001EE901ADFED092ABAE700210160416072
:102210008160F3E728440258000000394044025826
:102220000024744A0090D0030024744C0024F44A23
:102230002DE9FC5F044650F8241B002500902E4633
:102240000801FE4FDFF8F8831DD5606E50B1B0F580
:10225000801F0CD0B0F5001F0ED0B0F5401F1DD070
:1022600001250FE0386840F40030386016E00221A4
:10227000201D02F037FB03E00098022102F0C2FBB0
:1022800005000BD02E462088C00523D5606D05289B
:102290001ED2DFE800F00C11161B1B00626ED8F88E
:1022A000001021F440111143C8F80010EBE7386822
:1022B00040F40030386009E00021201D02F012FBDC
:1022C00003E00098002102F09DFB05466DB100E09F
:1022D00001252E462088800528D5A06D80281ED097
:1022E0000CDC90B140280ED114E0626DD8F80010DB
:1022F00021F007011143C8F80010EBE7C02813D004
:10230000B0F5807F10D001250FE0386840F4003030
:10231000386009E00021201D02F0E4FA03E0009893
:10232000002102F06FFB054695B12E462088DFF8AC
:102330001093400509F108092CD5D4F8A400B0F594
:10234000800F20D00DDCA0B1B0F5001F0FD115E03B
:10235000A26DD8F8001021F4E0711143C8F8001004
:10236000E4E7B0F5C00F13D0B0F5000F10D0012591
:102370000FE0386840F40030386009E00021201D8B
:1023800002F0B0FA03E00098002102F03BFB0546A2
:1023900075B12E46208800052DD5D4F8A800B0F1DF
:1023A000007F21D00EDCA8B1B0F1807F10D116E003
:1023B000D4F8A420D9F8001021F460011143C9F821
:1023C0000010E7E7B0F1407F13D0B0F1806F10D07C
:1023D00001250FE0386840F40030386009E0002142
:1023E000201D02F07FFA03E00098002102F00AFBB2
:1023F00005466DB12E46206880011FD5A06CD8B16E
:1024000010280FD0202812D0302815D0012514E034
:10241000D4F8A820D9F8001021F0E0611143C9F8E0
:102420000010E8E7386840F40030386004E002212A
:10243000201D02F057FA05466DB12E462088C004D3
:102440002BD5E06DB0F5005F20D00DDCA0B1B0F56C
:10245000805F0FD115E07A48A26C001F016821F05F
:10246000300111430160E9E7B0F5405F13D0B0F5EA
:10247000804F10D001250FE0386840F400303860FC
:1024800009E00021201D02F02DFA03E00098002150
:1024900002F0B8FA054685B12E462088800429D579
:1024A000206EB0F5403F23D010DC08B3B0F5803F7C
:1024B00014D0B0F5003F0FD115E0E26DD8F8001050
:1024C00021F4E0411143C8F80010E6E7B0F5802F91
:1024D0000ED0B0F5A02F0BD001250AE00121201D60
:1024E00002F000FA03E00098012102F08BFA0546A1
:1024F0008DB12E46208840042AD5D4F8AC00B0F126
:10250000405F23D010DC08B3B0F1805F14D0B0F18D
:10251000005F0FD115E0226ED8F8001021F4E02101
:102520001143C8F80010E5E7B0F1804F0ED0B0F1CC
:10253000A04F0BD001250AE00121201D02F0D2F9A5
:1025400003E00098012102F05DFA05466DB12E46C8
:10255000208800041FD5E06ED8B1B0F1805F0ED0A6
:10256000B0F1005F10D0012514E0D4F8AC20D9F808
:10257000001021F0E0411143C9F80010E8E7386885
:1025800040F40030386004E00121201D02F0AAF977
:1025900005466DB12E462068C0011ED5606CD0B1D5
:1025A00001280ED0022811D0032814D0012513E0F1
:1025B000E26ED8F8001021F040511143C8F8001025
:1025C000E9E7386840F40030386004E00221201D5B
:1025D00002F088F9054685B12E462068DFF85CB028
:1025E0004002ABF11C0B57D51648016841F48071CD
:1025F0000160FFF7F3FB82460EE01148626C001F9A
:10260000016821F0030111430160E6E7FFF7E6FBF3
:10261000A0EB0A0064283DD80A480068C005F5D53B
:102620007DBBDFF81CA0B4F8B0100AF1200ADAF87C
:10263000000001F4407100F4407005E02C440258A1
:102640005044025800480258884211D0DAF800106D
:10265000DAF8002021F4407142F48032CAF80020F8
:10266000DAF8002022F48032CAF80020CAF80010FC
:10267000D4F8B000B0F5807F21D1FFF7AFFB019017
:1026800019E008E0FFF7AAFB0199411A41F28830EE
:10269000814210D903252E462078DFF830A4C007E8
:1026A0003DD0A06F182838D026DC80B3082829D068
:1026B000102825D12CE0DAF800008007E2D5D4F804
:1026C000B010C1F30120032858460DD0016821F451
:1026D0007C510160B4F8B020DAF80010C2F30B02AC
:1026E0001143CAF80010D7E7F94A036802EA111249
:1026F00023F47C511143ECE720280ED028280CD07D
:1027000001250BE00121201D02F0ECF804E004E0BB
:102710000098012102F076F905465DB12E46207839
:1027200080071ED5606F062819D2DFE800F0160C6E
:1027300011161616A26FDAF8001021F038011143B5
:10274000CAF80010EBE70121201D02F0CBF803E0EE
:102750000098012102F056F9054675B100E0012507
:102760002E46207840071FD5D4F89000062819D2AD
:10277000DFE800F0160C11161616626FDAF800107A
:1027800021F007011143CAF80010EAE70121201DDA
:1027900002F0A8F803E00098012102F033F90546A1
:1027A0009DB100E001252E46207880062BD5D4F877
:1027B0008C00B0F1405F24D011DC10B3B0F1805F29
:1027C00015D0B0F1005F10D116E0D4F89020D9F800
:1027D000001021F007011143C9F80010E4E7B0F13F
:1027E000804F0ED0B0F1A04F0BD001250AE00021A0
:1027F000201D02F077F803E00098022102F002F9B0
:1028000005468DB12E46207840062BD5D4F8980089
:10281000B0F5406F24D011DC10B3B0F5806F15D047
:10282000B0F5006F10D116E0D4F88C20DAF8001063
:1028300021F0E0411143CAF80010E4E7B0F5805FF1
:102840000ED0B0F5A05F0BD001250AE00021201DBD
:1028500002F048F803E00098022102F0D3F80546A0
:102860008DB12E46207800062BD5D4F89C00B0F50B
:10287000C04F24D011DC10B3B0F5005F15D0B0F517
:10288000804F10D116E0D4F89820D9F8001021F428
:10289000E0511143C9F80010E4E7B0F5004F0ED045
:1028A000B0F5204F0BD001250AE00021201D02F0D9
:1028B00019F803E00098022102F0A4F805464DB192
:1028C0002E46207800071ED5D4F88000B0F5805F32
:1028D0000AD00FE0D4F89C20D9F8001021F4604110
:1028E0001143C9F80010ECE70098022102F08AF8C1
:1028F00000B10126D4F88020DAF8001021F440510C
:102900001143CAF800102078C00613D5D4F89400FB
:10291000B0F5807F05D10098022102F073F800B174
:102920000126D4F89420D9F8001021F44071114305
:10293000C9F800102068000316D5D4F8A00038B1FB
:10294000B0F5803F09D0B0F5003F0BD001250AE07B
:102950000021201D01F0C6FF03E00098022102F0D3
:1029600051F8054685B12E462068400322D5D4F89B
:102970008400B0F5801F11D0B0F5001F13D0B0F562
:10298000401F15D0012514E0D4F8A020D9F800107C
:1029900021F440311143C9F80010E5E7386840F4EC
:1029A0000030386004E00098012102F02BF8054661
:1029B00055B12E462068C0031CD5E06C70B1B0F54F
:1029C000803F10D0012514E0D4F88420DAF80010FC
:1029D00021F440111143CAF80010EBE7386840F4C5
:1029E0000030386004E00221201D01F07BFF054625
:1029F000CDB12E462068800005D50098022102F056
:102A000001F800B10126206880031BD5E06FB8B142
:102A1000B0F5807F10D0B0F5007F11D0B0F5407FC9
:102A20000ED001250DE02948E26C0838016821F438
:102A3000803111430160DDE7386840F400303860D0
:102A4000F5B32E462068C00207D5226FD8F80010D3
:102A500021F000411143C8F800102068C00008D5DB
:102A6000D4F8B420DBF8001021F480411143CBF8F6
:102A700000102068800207D5A26ED8F8001021F05F
:102A800080711143C8F80010206840000CD5DBF8B5
:102A9000001021F40041CBF80010DBF80010D4F84E
:102AA000B8201143CBF800102068002807DA074847
:102AB000226D0838016821F040511143016000E0A7
:102AC00008E086B10120BDE8FC9F00005444025894
:102AD000CFFFFF00E26FDAF8001021F440711143DC
:102AE000CAF80010AEE70020EDE700002DE9F05F26
:102AF00004000F467ED0DFF83882D8F8000000F0DE
:102B00000F00B8420CD2D8F8001021F00F01394361
:102B1000C8F80010D8F8000000F00F00B84269D1E2
:102B20002078844D40070AD52069296801F070019A
:102B3000884204D9296821F0700101432960207876
:102B40007C4E361D00070AD56069316801F07001BE
:102B5000884204D9316821F0700101433160207846
:102B6000C0060AD5A069316801F4E061884204D941
:102B7000316821F4E061014331602078DFF8B4B1BD
:102B800080060BF1080B0CD5E1695846DBF80020F4
:102B900002F07002914204D9026822F070020A43E6
:102BA0000260207880070AD5E068296801F00F01EB
:102BB000884204D9296821F00F0101432960207857
:102BC000C0073ED05B49A2682868183920F47060BD
:102BD000104328606068022818D0032819D00968BB
:102BE000012819D0490700294ADADFF848A1AAF1DB
:102BF000080A00E044E0DAF8002022F0070202436D
:102C0000CAF80020FFF7EAF8814612E00968890354
:102C1000E9E709688901E6E7C905E4E7FFF7DEF8B7
:102C2000A0EB090141F28830814202D90320BDE8BE
:102C3000F09F6168DAF8000000F03800B0EBC10FD7
:102C4000ECD1207880070AD5E068296801F00F01EF
:102C5000884204D2296821F00F0101432960D8F885
:102C60000010404601F00F01B9420BD9016821F074
:102C70000F0139430160006800F00F00B84201D035
:102C80000120D4E7207840070AD52069296801F09F
:102C90007001884204D2296821F070010143296043
:102CA000207800070AD56069316801F07001884218
:102CB00004D2316821F07001014331602078C006F0
:102CC0000AD5A069316801F4E061884204D2316814
:102CD00021F4E06101433160207880060CD5E16980
:102CE0005846DBF8002002F07002914204D20268DC
:102CF00022F070020A43026000F06CF80E492A6864
:102D00002B68C2F3032203F00F038A5CC95C02F054
:102D10001F0201F01F01D040084A20FA01F11160A2
:102D20000749086007480068BDE8F05FFFF792B800
:102D30000020005218440258C86F00083C030024C9
:102D4000380300243003002430B500F043F80B4A68
:102D50000B490C4B15681468C5F3032204F00F04EB
:102D60008A5C095D02F01F0201F01F01D040064A93
:102D700020FA01F119601060084630BD184402586D
:102D8000C86F00083C0300243803002400B5FFF797
:102D9000DBFF05490968054AC1F30211515C01F0E6
:102DA0001F01C84000BD00001C440258C86F000845
:102DB00000B5FFF7C9FF05490968054AC1F30221BB
:102DC000515C01F01F01C84000BD00001C440258C6
:102DD000C86F0008454970B545480968434B103B2A
:102DE00011F0380208D00111082A03D0102A0BD0A4
:102DF000182A0BD0084670BD19688906FBD51968DA
:102E0000C1F3C101C84070BD3A4870BD3749374D64
:102E100018310C1D24350A68096826682D6802F0EF
:102E2000030406F00102C1F30511C5F3CC0515FB3F
:102E300002F200EE102AB8EE400AE9B32F4ADFEDA5
:102E40002E0AB7EE001A6CB1DFED2D1A012C01D05D
:102E5000022C43D002EE101A1068F8EE422A81EEDE
:102E6000A22A1EE01C68A40611D51B6801EE901A68
:102E70001168C3F3C103F8EE612AD84001EE900A4D
:102E8000C1F30800F8EE611A81EEA22A0BE001EE10
:102E9000901ADFED1C2A00BFF8EE611A106882EE6E
:102EA000A12AC0F3080001EE900AF8EE611A40EE84
:102EB000201A31EE810A00E015E022EE000A1068C7
:102EC000C0F34620401C00EE900AF8EE600A80EE47
:102ED000201ABCEEC10A10EE100A70BD01EE901A65
:102EE000DFED092AD8E7002070BD00001044025829
:102EF0000090D00300127A000000003930440258DC
:102F00000024744A0024744C0024F44A2DE9F05F34
:102F100004007CD0FF4F2078FE4D1837DFF8F49383
:102F2000103DC00748D0D9F80000396800F03800DB
:102F3000102815D0182803D101F0030002280FD063
:102F40006068B0F5803F12D010B1B0F5A02F18D056
:102F5000286820F480302860286820F4802009E068
:102F60002868800328D560680028D2D024E028682B
:102F700040F480302860606888B1FEF72FFF064675
:102F800009E0286840F480202860F0E7FEF726FF7B
:102F9000801B64287ED828688003F7D50CE0FEF7F4
:102FA0001DFF064605E000BFFEF718FF801B6428E2
:102FB000F0D828688003F7D4207841F20308D54E72
:102FC0000C3E800753D5D9F80000396810F038005E
:102FD0000ED0182801D188070AD0E068A8B3296864
:102FE00021F0190101432960FEF7F8FE82461BE03B
:102FF0002868400702D5E06800288AD0FEF7E8FE7E
:1030000040451BD82069402812D0316800E0CCE050
:1030100021F47C3141EA0030306028E0FEF7DEFE2A
:10302000A0EB0A000228B5D828684007F6D5E5E7E6
:10303000306820F47C3040F40030EDE7207C3168CB
:1030400021F0FE4141EA0060E6E7FFE7286820F052
:1030500001002860FEF7C2FE824605E0FEF7BEFED4
:10306000A0EB0A00022895D828684007F6D42078FB
:10307000C0065FD5D9F80000DFF898B2396800F0D3
:103080003800ABF1040B082812D0182805D101F044
:10309000030000E0EAE001280AD0E069002828687F
:1030A00038D040F080002860FEF798FE824623E08A
:1030B0002868C00523D5E069802876D11FE0206A02
:1030C000202821D0316821F0F84141EA8060306049
:1030D00030E000BF94F82010DBF8002022F07C5292
:1030E00042EA0161CBF8001024E000BFFEF776FE53
:1030F000A0EB0A00022896D82868C005F6D5FEF78E
:1031000067FE4045E6D8DAE7306820F0F84040F046
:103110008040DCE720F080002860FEF75FFE064676
:1031200005E000BFFEF75AFE801B02289BD82868E6
:10313000C005F7D42078000729D576486169643046
:1031400000298046016811D041F001010160FEF7BD
:1031500045FE064605E000BFFEF740FE801B022844
:10316000C9D8D8F800008007F6D510E021F0010199
:103170000160FEF733FE064605E000BFFEF72EFEB7
:10318000801B022872D8D8F800008007F6D4207877
:10319000800623D5A0690028286810D040F480500C
:1031A0002860FEF71BFE064605E02CE1FEF716FE42
:1031B000801B02285AD828688004F7D50EE020F436
:1031C00080502860FEF70AFE064604E0FEF706FE81
:1031D000801B02284AD828688004F7D4207840074A
:1031E0004FD5DFF83481D8F8001041F48071C8F869
:1031F0000010FEF7F3FD064605E000BFFEF7EEFD0A
:10320000801B642832D8D8F80000C005F6D5414E9E
:10321000A068603601280AD008B1052813D03068AC
:1032200020F001003060306820F0040002E03068D7
:1032300040F001003060A06841F2883A90B1FEF79A
:10324000CDFD80460AE0306840F004003060EEE7D3
:10325000FEF7C4FDA0EB0801514507D83068800790
:10326000F6D50EE0FEF7BAFD804607E084E000BF29
:10327000FEF7B4FDA0EB080151457DD8306880070A
:10328000F6D4606AF0B3DFF88C80D9F8001008F14A
:103290002008C1F3C20103296FD00228286820F05A
:1032A0008070286003D0FEF799FD044680E0FEF7A9
:1032B00095FD064605E000BFFEF790FD801B022845
:1032C00073D828688001F7D4E26A40F2F331386895
:1032D00054F8283F884340EA021018433860217BA5
:1032E0004FF4FE0C22894FF0FE47208A4902267DCA
:1032F000521E401EA1F5007189B20CEA0040C2F3D3
:10330000080200E081E01143761E0143014807EA0C
:10331000066203E010440258004802581C30114372
:103320003B4AC8F80010016821F0010101601168F2
:103330004FF6F876236AB14341EAC3011160016890
:10334000A26921F00C01114301600168E26921F0DA
:10335000020111430160016841F48031016001689C
:1033600041F400310160016841F48021016001688D
:1033700041F00101016001E017E01DE0286840F024
:1033800080702860FEF72AFD044604E0FEF726FD63
:10339000001B022809D828688001F7D535E000BF56
:1033A000FEF71CFD001B022802D90320BDE8F09F98
:1033B00028688001F4D428E039680128D8F8000092
:1033C00021D0A26A01F0030393421CD1E26AC1F347
:1033D00005118A4217D1216BC0F30802491E8A42A7
:1033E00011D1616BC0F34622491E91420BD1A16BF2
:1033F000C0F30642491E914205D1E16BC0F306605D
:10340000491E814201D00120D0E70020CEE7000014
:1034100034440258704700002DE9F05F016804460B
:103420000020D1F810804F69D1F8089094F881609D
:1034300008EA070515F0600F01F1300B08D16907A4
:1034400006D5616F20468847216F204688470120B6
:1034500005F04101012905D1690703D4216F2046F8
:103460008847012005F02201022906D1690704D40A
:10347000616F2046BDE8F05F0847002859D1280752
:103480004FF0010A6AD5206819F4404F826942F072
:10349000080181612068816941F010018161206823
:1034A000816941F4006181612068016921F00801AE
:1034B000016109D0042E04D0A06FC06920B1032E91
:1034C00040D0E06FC069B0BB2068806810F4404F06
:1034D00020D023E0E0680F2806D92068616E006BD9
:1034E0000860606E001D0FE0072806D9BBF80000D9
:1034F000616E0880606E801C06E02068616E90F846
:1035000030000870606E401C6066B4F86A00401EAF
:10351000A4F86A00B4F86A000028DBD1204601F064
:103520002BFB84F881A0D4F8840020B12046FFF75B
:1035300071FFBDE8F09FFFE7052E07D0042E09D0EC
:10354000032EF6D1204600F0D7FDF2E7204600F02A
:1035500007FEEEE7204600F075FAEAE7380508D5E1
:103560005FEA087005D52068816941F400618161D6
:10357000DFE715F4587FDCD068060AD5D4F884005C
:1035800040F00400C4F884002068816941F04001E3
:103590008161A8050AD5D4F8840040F00100C4F880
:1035A00084002068816941F400718161E8050AD5D1
:1035B000D4F8840040F00800C4F8840020688169D1
:1035C00041F480718161A8060AD5D4F8840040F0E6
:1035D0008000C4F884002068816941F02001816185
:1035E000D4F884000028A4D0206840F26B32C9F3DC
:1035F00081310368032923F001010160206801691A
:1036000021EA0201016102D084F881A08EE72068DE
:10361000104D816821F440418160E06F50B1056533
:10362000E06FFDF7CBFA28B1D4F8840040F04000F9
:10363000C4F88400A06F002887D00565A06FFDF74F
:10364000BDFA002885D0D4F8840040F04000C4F8CA
:1036500084006EE7354C00082DE9F047040029D0BE
:103660004A4A4FF000092068494B4A4D9042C4F83D
:10367000289006D0984204D0A84202D0E1680F29D1
:1036800018D8E1684FF0010AE76B0831C9080AEB66
:1036900057167143904205D0984203D0A84201D0FA
:1036A000082907D8904203D0984201D0A84204D1FB
:1036B000102902D90120BDE8F08794F8810020B9D3
:1036C000204684F8809000F067F8022084F881009A
:1036D0002068016821F001010160A069B0F1806FEC
:1036E0000AD16068B0F5800F06D1A06B20B92068C0
:1036F000016841F480510160A56AE0692368E16BCB
:103700002843E268084310439860D4E90D02D4E9E5
:1037100005C1636A25691843D4F820800A432668E6
:1037200010432843A56DD4E90172D4E9123140EA6F
:103730000C0040EA0800384308431043184328436C
:10374000F060606868B92068816821F4C05141F474
:10375000006181602068816821F4C06141F480616A
:1037600081602068016D21F00101016560684002FF
:1037700006D52068626DC16821F000411143C16027
:10378000C4F8849084F881A0002094E700300140C0
:1037900000380040003C00402DE9F04F87B007465C
:1037A00014216846FCF71CFF3E493868884276D1F0
:1037B0003D48016841F480510160006800F4805088
:1037C000059039481038016841F001010160016835
:1037D00001F001010591016841F0020101600068FA
:1037E000002402254FF0050800F00200DFF8BCB00D
:1037F00001264FF02009CDE90264CDE90480CDE92E
:10380000009569465846FEF7C5F94FF0400A6946EB
:10381000CDE90264CDE900A55846CDF81080FEF749
:10382000B9F923486946CDE90264CDE90095CDF8A0
:103830001080FEF7AFF91F4E25221F494FF4806814
:10384000304686E81600C6E903487461B461F46145
:1038500034627462FDF76EFE08B1FDF7AEF9154DE6
:103860002623FE677835B763134A2846C5E903481F
:103870006C611832AC61EC612C626C6285E80C04FE
:10388000FDF758FE08B1FDF798F90022BD67232027
:103890001146AF63FEF71AFB2320FEF709FB07B0C2
:1038A000BDE8F08F00300140F0440258000002589B
:1038B0000004025840040024400002402DE9F04179
:1038C0000446164604204FF48008A2685AB963687B
:1038D000434508D184F88100334620460A46BDE8B6
:1038E000F04100F059BA94F88030012B09D094F8D7
:1038F00081300127002584F88070012B04D002203C
:103900002DE00220BDE8F08141B33EB36166603432
:10391000B2F5C02F84F821006562256165612580BC
:10392000268166816580A4F1600404D12068016865
:1039300021F400610160E0684FF480410F2803D951
:10394000E26F92698A4209D107284FF4005209D9DF
:10395000E06F8069904205D0884203D0012084F84E
:103960008050CFE72068836823F480438360E06859
:10397000072811D8E06F8369934205D1B4F86A2013
:10398000521C5208A4F86A208069884210D1B4F809
:103990006A00C01C800809E00F2809D8E06F806920
:1039A000884205D1B4F86A00401C4008A4F86A00B7
:1039B000E06F21490164E16F2048C863E16F20484E
:1039C000C864E06F0565B4F86A302168626EE06F24
:1039D0003031FDF791FF48B1D4F88410384641F0FA
:1039E0001001C4F8841084F881708BE7E06FC0691F
:1039F000B0F5807F206841686FF30F0100D031433C
:103A000041602068816841F48041816020680169DB
:103A100041F4507101612068016841F001010160C9
:103A20006068404504D12068016841F4007101607C
:103A3000284684F8805065E77B4C0008994C0008C4
:103A40004F4C0008084910B588420BD1074C6079EB
:103A50001F3020F01F01064801F076F80121E170C7
:103A60000420207110BD0000B803002420030024AE
:103A70002002002470472DE9FF4F83B090F880109A
:103A80000446006801294FF00001109F1D46019176
:103A900000F1200100F1300093460291009014D013
:103AA0004FF0010A84F880A0FEF798F9804694F858
:103AB00081006368002101282E464FF480020CD05B
:103AC000934208D1A36833B903E0022007B0BDE8F0
:103AD000F08F042801D0022037E0049898B3BBF19E
:103AE000000F31D07DB394F88100042802D0052066
:103AF00084F8810089460846C4F88410C4F864B08C
:103B0000A4F86A50A4F868500499E165A4F86250DA
:103B1000A4F8605020676067206841686FF30F0168
:103B2000294341602068016841F00101016060683B
:103B3000904204D12068016841F400710160E0689E
:103B40000F2835D846E0FFE7012084F88010BDE754
:103B50002068416989070DD565B1E16D0968016289
:103B6000E06D001DE065B4F86200401EA4F862003C
:103B7000B4F8625048F208022068416911420DD041
:103B800066B1006B616E0860606E001D6066B4F81F
:103B90006A00401EA4F86A00B4F86A60FEF71EF9D5
:103BA000A0EB0800B84202D3781C01D004E01FB19A
:103BB00055EA0600CCD1D2E0204600F0DDFFD4F873
:103BC000842084F8809042F48071C4F8841084F8D2
:103BD00081A0DCE007284DD8BEE020684169890754
:103BE0001CD5DDB1012D0BD9E16B49B1E16D09683F
:103BF0000162E06D001DE065B4F86200801E09E01E
:103C0000E06D018802980180E06D801CE065B4F8E9
:103C10006200401EA4F86200B4F862502068416956
:103C200011F4604F1BD0D6B14169090409D5006B6E
:103C3000616E0860606E001D6066B4F86A00801EE8
:103C400009E000980088616E0880606E801C6066E4
:103C5000B4F86A00401EA4F86A00B4F86A60FEF77F
:103C6000BDF8A0EB0800B84202D3781C02D0A3E74D
:103C7000002FA1D055EA0600AFD170E0206841695D
:103C800089072CD55DB3032D0CD9E16B40290BD9E5
:103C9000E16D09680162E06D001DE065B4F8620045
:103CA000001F18E0012D0CD9E16B51B1E06D0188C6
:103CB00002980180E06D801CE065B4F86200801E0F
:103CC00009E0E16D097880F82010E06D401CE065A6
:103CD000B4F86200401EA4F86200B4F86250206894
:103CE000416911F4604F2CD05EB34169090409D5D4
:103CF000006B616E0860606E001D6066B4F86A005B
:103D0000001F1AE0416901F4C041B1F5005F0AD912
:103D100000980088616E0880606E801C6066B4F850
:103D20006A00801E09E090F83000616E0870606ED5
:103D3000401C6066B4F86A00401EA4F86A00B4F83B
:103D40006A60FEF74BF8A0EB0800B84202D3781C7B
:103D500002D031E7002F8AD055EA06008ED100222A
:103D6000434608212046009700F0D2FF28B1D4F83E
:103D7000840040F02000C4F88400204600F0FCFEDF
:103D800084F881A0D4F8841084F8809009B10120CF
:103D90009CE601989AE600002DE9F041044690F86F
:103DA00080001E4601280DD094F881000127636829
:103DB0004FF48008002584F88070434507D1A3683C
:103DC0002BB902E00220BDE8F081042803D00128CD
:103DD00001D0022030E071B36AB366B394F8810079
:103DE000042802D0052084F881004FF48040C4F8F4
:103DF0008450E165A4F86060A4F862606266A4F88B
:103E00006860A4F86A602567656721688A6822F49B
:103E100040428A60E1680F2903D9E26F92698242C9
:103E200009D107294FF4005C09D9E36F9A6962450B
:103E30002AD0824228D0012084F88050C3E7A16FA5
:103E40008A69624505D1B4F86220521C5208A4F870
:103E500062208969814205D1B4F86210C91C8908C1
:103E6000A4F86210E16F8A69624505D1B4F86A204E
:103E7000521C5208A4F86A208969814219D1B4F809
:103E80006A00C01C800812E00F2912D8A16F89694E
:103E9000814205D1B4F86210491C4908A4F86210A7
:103EA0009969814205D1B4F86A00401C4008A4F821
:103EB0006A0094F88100E16F042813D02F48086449
:103EC0002F48E16FC863E06F2E49C164E06F05655C
:103ED000B4F86A302168626EE06F3031FDF70CFD96
:103EE000D8B904E0284808642848E16FEAE7206868
:103EF000816841F480418160A06F0564A06FC56353
:103F0000A06FC564A06F0565B4F862302268E16DEA
:103F1000A06F2032FDF7F0FC48B1D4F88410384689
:103F200041F01001C4F8841084F881704BE7A06F51
:103F3000C069B0F5807F206841686FF30F0100D041
:103F4000314341602068816841F40041816020680C
:103F5000016941F4587101612068016841F0010173
:103F600001606068404504D12068016841F4007137
:103F70000160284684F8805025E700008F4C000837
:103F8000E94C00084F4C00087B4C0008994C000895
:103F90002DE9F041044690F880001646012809D02A
:103FA00094F881000127002584F88070012804D04E
:103FB000022032E00220BDE8F08169B366B3A26856
:103FC0000320E165A4F8606084F88100C4F884509F
:103FD000A4F86260656665672567A4F86850A4F870
:103FE0006A50B2F5C02F04D12068016841F4006125
:103FF0000160E1684FF480420F2903D9A06F806906
:10400000904209D1A06F07294FF4005308D9806965
:10401000984216D0904214D0012084F88050CAE70C
:104020008169994205D1B4F86210491C4908A4F885
:104030006210806990420ED1B4F86200C01C800802
:1040400007E00F2907D8904205D1B4F86200401C60
:104050004008A4F86200A06F24490164A16F2448BD
:10406000C863A16F2348C864A06F05652068816894
:1040700021F400418160B4F862302268E16DA06FE4
:104080002032FDF739FC48B1D4F88410384641F0AD
:104090001001C4F8841084F881708CE7A06FC069A7
:1040A000B0F5807F206841686FF30F0100D0314385
:1040B00041602068816841F40041816020680169A5
:1040C00041F4487101612068016841F0010101601B
:1040D0006068B0F5800F04D12068016841F4007178
:1040E0000160284684F8805065E70000854C000890
:1040F000C14C00084F4C000870B505461348854276
:104100000DD1134C022021464A792179B1B1012900
:1041100006D0022903D10120A0700421217170BDB5
:104120001F3220710B4822F01F0100F0FBFC627966
:104130002846BDE870400749FFF72ABF207128468E
:10414000BDE870400449FFF7B9BB0000B803002484
:1041500020030024200100242002002470470000D6
:10416000084910B588420BD1074C60791F3020F008
:104170001F01064800F0E8FC0121E17004202071D5
:1041800010BD0000B80300242003002420020024F6
:104190007047401EB0F1807F10B501D3012010BDE3
:1041A0004FF0E02460610F21601701F072FA0020E7
:1041B000A0610721216110BD30B590F87C10012964
:1041C00018D0012280F87C202421C0F88010002221
:1041D000202450F8601B0B680D6823F0005325F075
:1041E00001050D60426050F8601C0B6004620277AC
:1041F000104630BD022030BD704770B5044690F8BF
:104200007C0001281DD0012284F87C202420C4F8E1
:10421000800020680568026822F0010202602068C0
:10422000826822F060620A438260204600F01CFF30
:104230002268202100201560C4F8801084F87C00DA
:1042400070BD022070BD70B5044690F87C00012856
:104250001DD0012284F87C202420C4F8800020682E
:104260000568026822F0010202602068826822F07C
:1042700060420A438260204600F0F6FE2268202158
:1042800000201560C4F8801084F87C0070BD022006
:1042900070BD7047704770472DE9F04103680446D0
:1042A000002540F60F06D86919689A68304209D18E
:1042B00086067DD501F0200602F080573E4377D078
:1042C000E16E9EE0614E624F16400F4037436FD063
:1042D000C70709D0CF0507D501271F62D4F888305A
:1042E00043F00103C4F8883083070AD5D30708D008
:1042F000276802233B62D4F8883043F00403C4F8F3
:10430000883043070AD5D30708D0276804233B62C7
:10431000D4F8883043F00203C4F8883003070CD582
:1043200001F02003334308D0266808233362D4F811
:10433000883043F00803C4F8883003050BD54B01DF
:1043400009D526684FF400633362D4F8883043F00F
:104350002003C4F88830D4F88830002B34D080068D
:1043600009D501F0200002F08051084303D0E16E2E
:1043700009B1204688472168D4F888008968490631
:1043800002D410F0280F21D0204600F03DFF206815
:104390008168490615D5816821F040018160A06FD0
:1043A00078B12C490165A06FFCF708FC002800E0FB
:1043B00012E009D0A06F016D00E02046BDE8F04199
:1043C00008472046FFF767FFBDE8F0812046FFF76A
:1043D00062FFC4F88850F7E7C60209D5560207D530
:1043E0004FF4801018622046BDE8F041FFF752BF3D
:1043F000060609D501F0800602F40002164303D038
:10440000216F0029D9D1DFE742060DD54A060BD529
:104410001A682021204622F040021A60C4F8801059
:10442000256700F01FF9CFE7020206D54A0004D540
:104430002046BDE8F041FFF72CBFC001C4D50029DC
:10444000C2DA2046BDE8F041FFF7D6BE01000010F9
:1044500020010004F351000810B5040003D0D4F883
:10446000800010B107E0012010BD002084F87C001E
:10447000204600F027F82420C4F880002068016856
:1044800021F001010160204600F0D2FE0128EBD0AE
:10449000A06A10B1204600F019FE2068416821F49E
:1044A000904141602068816821F02A018160206884
:1044B000016841F0010101602046BDE8104000F0B4
:1044C00069BE00002DE9F04387B007461421684615
:1044D000FCF786F82E493868884255D12D48016886
:1044E00041F480210160006800F480200590294893
:1044F0000838016841F008010160006807224FF4A4
:10450000407100F008000590022000250295CDE9D9
:104510000010CDE9030220486946FDF73BFB1F4E22
:104520002D231F4A4FF480684FF48039304686E8C7
:104530002C00C6E903587561B561C6E90759756273
:10454000FCF7F8FF08B1FCF738FB144C2E22144995
:1045500040237834BE671831B763204684E82E01C3
:104560006561A561C4E907596562FCF7E3FF08B11D
:10457000FCF723FB00227C6727201146A763FDF789
:10458000A5FC2720FDF794FC07B0BDE8F0830000F0
:1045900000480040E8440258000C0258BC050024C2
:1045A000100002402DE9F8430446D0F880001F4671
:1045B00016460D46202852D1DDB1D6B194F87C00C4
:1045C00001284CD0012084F87C0021224FF0000803
:1045D000C4F88880C4F880201834FDF7FFFB8146BA
:1045E00054F8100CA687E687183CB0F5805F03D01E
:1045F00004E00120BDE8F883206920B12E460025A3
:1046000084F87C8010E00026FAE78021204600F044
:10461000E7FFB8B9C6B116F8010B21688862B4F893
:104620005600401EA4F85600B4F856004B464FF012
:10463000000200970028E8D14FF04001204600F02A
:10464000CFFF38B10320D5E735F8020B2168C0F35E
:104650000800E3E72020C4F880000020CAE7022019
:10466000C8E700000349884202D1034901200870CD
:10467000704700003005002420030024FEE70000FE
:10468000154808B5016841F0010101600068002289
:10469000114600F0010000900B20FDF717FC0B20E5
:1046A000FDF706FC00220C201146FDF70FFC0C2044
:1046B000FDF7FEFB00220D201146FDF707FC0D2043
:1046C000FDF7F6FB00220E201146FDF7FFFBBDE8CB
:1046D00008400E20FDF7ECBBD8440258044A0021E4
:1046E000044810B501F08AF80349086010BD0000C5
:1046F000846F0008554D0008280300242DE9F04F71
:1047000087B014216846FBF76BFF3C48016841F015
:1047100010010160016801F010010591016841F08C
:1047200080010160016801F080010591016841F09C
:1047300001010160016801F001010591016841F08A
:1047400008010160016801F008010591016841F06C
:1047500040010160016801F040010591016841F0EC
:1047600002010160006846F60826DFF894900022F6
:1047700000F00200314605904846FDF723FBDFF8C4
:1047800084A04FF44047002239465046FDF71AFBFB
:10479000DFF874B04FF4A048002241465846FDF7B8
:1047A00011FB1A480022C021FDF70CFB00240096E3
:1047B000012569464846CDE901540394FDF7EAF91D
:1047C00000976946CDE9015450460394FDF7E2F99C
:1047D000CDF800806946CDE9015458460394FDF7B1
:1047E000D9F9C0200090CDE90154084869460394E6
:1047F000FDF7D0F907B0BDE8F08F0000E0440258A3
:1048000000100258000C0258001802580004025808
:104810002DE9F04117484FF48007DFF854C000211C
:10482000FA000726C0F800C05510C0E9036233073C
:10483000C0E90171C0E9073141625400816252014F
:10484000C162C0E90D21C163016441648164C16436
:10485000016541658165C0E90554FEF7FDFE00284C
:1048600003D0BDE8F041FCF7A8B9BDE8F081000035
:1048700000300140B80300241848002110B5164C40
:104880000C224FF4E1330460C0E90131C160C0E99A
:1048900004128161C161016241628162FFF7DCFD46
:1048A00008B1FCF78AF90D480021FFF7CCFC08B1EC
:1048B000FCF783F909480021FFF79FFC08B1FCF7DA
:1048C0007CF90648FFF778FC002803D0BDE81040CB
:1048D000FCF773B910BD000000480040300500240B
:1048E000FEE770472DE9F047454D044689464FF0F5
:1048F000000A2868C04380070AD0414E283E30682D
:1049000020F080603060FDF769FA0746B04608E0A5
:104910000120BDE8F08700BFFDF760FAC01B022848
:1049200067D8D8F800000001F6D4206829684FF451
:10493000FE0721F47C313E0241EA00302860207AF3
:10494000A389B4F804C040022D4D2D495B1E227C82
:10495000ACF1010C1035091DA0F5007080B2521E9B
:10496000CCF3080C07EA034340EA0C00184306EABC
:104970000262104328600868626920F0C00010439A
:1049800008600A68A06922F0200202430A60281D1C
:104990000A6822F010020A6002684FF6F873E469B0
:1049A0009A4342EAC40202600868B9F1000F40F07D
:1049B00010020A6011D00868B9F1010F11D040F45B
:1049C00000100860D8F80000444640F08060C8F845
:1049D0000000FDF703FA05460DE0086840F40020EA
:1049E000EFE740F48010ECE7FDF7F8F9401B0228F0
:1049F00001D903208DE720680001F5D5504688E7EE
:104A0000284402582DE9F047454D044689464FF0A9
:104A1000000A2868C04380070AD0414E283E30680B
:104A200020F080503060FDF7D9F90746B04608E025
:104A30000120BDE8F08700BFFDF7D0F9C01B0228B8
:104A400067D8D8F800008000F6D4208829684FF491
:104A5000FE0721F07C713E0241EA00502860207A76
:104A6000A389B4F804C040022D4D2D495B1E227C61
:104A7000ACF1010C1835091DA0F5007080B2521E72
:104A8000CCF3080C07EA034340EA0C00184306EA9B
:104A90000262104328600868626920F44060104395
:104AA00008600A68A06922F4007202430A60281DA7
:104AB0000A6822F480720A6002684FF6F873E469AB
:104AC0009A4342EAC40202600868B9F1000F40F458
:104AD00080720A6011D00868B9F1010F11D040F05E
:104AE00080700860D8F80000444640F08050C8F854
:104AF0000000FDF773F905460DE0086840F48000FA
:104B0000EFE740F40000ECE7FDF768F9401B0228EE
:104B100001D903208DE720688000F5D5504688E74D
:104B2000284402582022BFF34F8F064B02E0891A17
:104B3000186010440029FADCBFF34F8FBFF36F8F6A
:104B40007047000068EF00E02022BFF34F8F064B54
:104B500002E0891A186010440029FADCBFF34F8F75
:104B6000BFF36F8F704700005CEF00E00148FEF775
:104B700053BC0000B803002410B5026840F26F3344
:104B80005169946944F0080494610268946944F09E
:104B9000100494610268146824F00104146002682F
:104BA00014699C4314610268936823F44043936042
:104BB00090F88120042A0CD08A060AD5D0F88420E7
:104BC00042F08002C0F884200268936943F0200319
:104BD000936190F88120032A0CD04A060AD5D0F8B8
:104BE000842042F00402C0F884200268936943F0F4
:104BF000400393618A050AD5D0F8842042F001026F
:104C0000C0F884200268936943F400739361C90576
:104C10000AD5D0F8841041F00801C0F8841001686A
:104C20008A6942F480728A610021A0F86210A0F8BB
:104C30006A1010BD10B5806B00210122A0F86A1027
:104C4000A0F8621080F88120FEF7E4FB10BD10B5DB
:104C5000846BFCF7F5F802280ED02046FFF78CFF96
:104C6000D4F88410012041F01001C4F8841084F8B5
:104C700081002046FEF7CEFB10BD10B5806BFEF71D
:104C8000F9FE10BD10B5806BFFF768FA10BD10B5C6
:104C9000806BFFF77DFA10BD10B5806B90F8811026
:104CA000072909D0C16FC969B1F5807F05D00068B7
:104CB000016941F00801016110BDFEF7C3FE10BD9E
:104CC00010B5806B90F88110072909D0816FC969F0
:104CD000B1F5807F05D00068016941F008010161EC
:104CE00010BDFFF709FA10BD10B5806B90F8811068
:104CF000072909D0816FC969B1F5807F05D00068A7
:104D0000016941F00801016110BDFFF729FA10BDEA
:104D10002DE9F041984616460D460746069C09E0E7
:104D2000FDF75CF8A0EB0800A04202D3601C01D0A4
:104D30000BE054B13868406935EA000007D0002024
:104D4000B042EDD00020BDE8F0810320FBE7012058
:104D5000F6E70000554800228EB04FF48041FDF781
:104D600031F801278DF8047000268DF806600920BF
:104D700001AC411C2654C8B21528FAD34FF0420B9F
:104D80004FF0FF088DF805B0C8254948052307AA4C
:104D900021468DF807808DF808800095FEF76BFEA0
:104DA0004FF0430A8DF805A04148052307AA8DF866
:104DB000077001A98DF808600095FEF75CFE44219C
:104DC0008DF805103A48092307AA4FF0030901A9F5
:104DD0008DF807708DF808900095FEF74CFE4D2079
:104DE0008DF80500052041468DF807608DF80870A4
:104DF000421C2154D0B20928FAD32D48092307AA0E
:104E0000009501A9FEF737FE4F218DF805108DF8AA
:104E1000087006208DF807608DF80990411C265413
:104E2000C8B20928FAD32248092307AA009501A984
:104E3000FEF721FE5A228DF805A004208DF80760A8
:104E4000411C2254C8B20928FAD31948092307AAD9
:104E5000009501A9FEF70FFE50228DF805B0032042
:104E6000411C2254C8B21528FAD3104E4FF4804486
:104E70004FF47A77214600223046FCF7A3FF0C4816
:104E8000152307AA009501A9FEF7F5FD0948C823D7
:104E9000152207A9FFF786FB012221463046FCF7C1
:104EA00091FF384600F054FCE4E70000000C025883
:104EB000B80300243005002410B5FCF795FF01F07D
:104EC000A7FE012803D0BDE8104001F0CDBB10BD06
:104ED00070B5CCB04C212FA8FBF782FB202142A853
:104EE000FBF77EFBBC216846FBF77AFB0220FDF74F
:104EF0001FF8224800242249026842F4404202601E
:104F000002680A6842F001020A60096801F00101C2
:104F10004A9101688904FCD54FF4A02201210220A6
:104F20003890CDE92F1239AA7823202582E80B008A
:104F30000C263E90CDE93C05CDE93F642FA8419475
:104F4000FDF7E4FF402008230501CDE9453042ABE1
:104F5000CDE9470549903F21032283E8160004214B
:104F600042A8FDF7C3FD41F2020017941D94009082
:104F70006846FDF75DF94CB070BD00001848025856
:104F80002C0400582E48F0B52E4A016841F47001F7
:104F90000160106800F00F00072804D2106820F0AC
:104FA0000F00C01D106028490020274C10340B68EA
:104FB000264D43F001030B6020600B682B400B6013
:104FC000136803F00F03072B04D9136823F00F03B2
:104FD000DB1D13601C4C1E4A18341E4B261D371D4A
:104FE0002060194C1C4D28343060261D3860371D58
:104FF00023603B1D35601C1D3A60251D2E1D186069
:10500000331D22602860326018600A680E4B134C12
:1050100022F4802260330A60186020686FF30F006A
:10502000B0F1005F03D20E490120C1F8080143F23C
:10503000D2000C49024B4A03803B08601A60F0BD65
:1050400088ED00E000200052004402587FEDF6EAAF
:1050500080020101000202020000FF010010005C5A
:1050600000800051004000523FB514A1D1E9002357
:1050700014A1CDE90023D1E90021CDE90221416E3F
:10508000B9B1016802AC8A688968C2F34262490F0B
:105090001DF80150615C2D01B5FBF1F1A0F86A101B
:1050A0001DF80210A25C0901B1FBF2F1A0F8681032
:1050B0003FBD0121A0F86A10F8E7000001010103DB
:1050C00007010000080402040801010190F82810FB
:1050D000C90706D00168C36A4A6822F400321A433D
:1050E0004A6090F82810890706D50168036B4A6862
:1050F00022F480321A434A6090F82810490706D5F6
:105100000168436B4A6822F480221A434A6090F88F
:105110002810090706D50168836B4A6822F400420B
:105120001A434A6090F82810C90606D50168C36B77
:105130008A6822F480521A438A6090F828108906FF
:1051400006D50168036C8A6822F400521A438A600B
:1051500090F82810490611D50168436C4A6822F47A
:1051600080121A434A60416CB1F5801F06D1016874
:10517000836C4A6822F4C0021A434A6090F82810EF
:10518000090606D50168C26C486820F40020104367
:1051900048607047F8B500260446C0F88860FCF700
:1051A0001DFE054620686FF07E470068000708D5A1
:1051B00000222B464FF400112046009700F010FA11
:1051C00060B92068006840070AD500222B464FF4DA
:1051D00080012046009700F003FA08B10320F8BDD3
:1051E0002020C4F8800084F87C60C4F8840000208B
:1051F000F8BD10B5806B0021A0F85E10A0F8561025
:10520000FFF749F810BD000030B501682023074DB5
:1052100000240A6822F490720A6001688A682A40B1
:105220008A60C0F88430C46630BD0000FEFFFFEF26
:105230002DE9F04304468068D94F87B02268D4E94D
:105240000465E369616E304316681D432843D54BFE
:10525000002501433E400E4316602068E268416825
:1052600021F44051114341602268A1699A4201D062
:10527000206A01439668DFF830C3CC4FCC4806EA79
:105280000C060E4396602168666ACA6A22F00F0215
:105290003243CA622268BA420ED1006800F0380078
:1052A000182873D047DCB8B3082879D010286FD1FC
:1052B00078E028287ED17BE0BE498A4209D1006887
:1052C00000F00700062875D2DFE800F0546A6C6E23
:1052D0007072B9498A4209D1006800F007000628B7
:1052E00068D2DFE800F0475D5F616365B3498A42D9
:1052F00009D1006800F0070006285BD2DFE800F063
:105300003A5052545658AE498A420BD1006800F0C8
:10531000070006284ED200E010E0DFE800F02B4145
:1053200043454749A7498A420AD1006800F038003E
:10533000182839D0B7DD2028BBD13CE001203AE065
:10534000A1498A4209D1006800F00700062831D23D
:10535000DFE800F01026282A2C2E9C498A420BD127
:10536000006800F00700062824D2DFE800F00319E7
:105370001B1D1F2100201EE09A421BD18C48001DDE
:10538000006800F00700062814D202E00CE007E0F5
:1053900010E0DFE800F0030507090B0D02200AE02A
:1053A000042008E0082006E0102004E0202002E0AD
:1053B000402000E080208649DFF818829A42864A21
:1053C0004FF400434FEA21174FF000064ED110284A
:1053D0001AD006DC022809D004280BD008287DD179
:1053E0000DE020283ED0402878D13DE0FCF7CAFDF2
:1053F000014610E06846FCF7D7FD01990BE003A8D1
:10540000FCF774FE049906E01068800604D5106865
:10541000C0F3C100C140C1B3606A676838F81020AA
:1054200007EB4703B1FBF2F0834257D8B0EB073FDD
:1054300054D8002308461946FBF70EF80902020269
:1054400041EA106170084FEA370010183A4671417E
:105450000023FBF701F8614AA0F5407191423DD865
:1054600021684CE03946D7E71946D5E7D4F81CC087
:105470004FF6EF799C4552D108281AD006DC60B16E
:1054800001280DD0042829D10EE039E0102815D0CC
:10549000202840D040287CD13FE0FDF777FC01E098
:1054A000FDF786FC014610E06846FCF77DFD01999A
:1054B0000BE003A8FCF71AFE049906E010688006CA
:1054C00004D51068C0F3C100C140C9B1636A606807
:1054D00038F81330B1FBF3F1490000E059E001EB7B
:1054E0005001B1FBF0F080B2A0F11001494550D855
:1054F0004FF6F0732168C0F3420218401043C860B1
:105500000120A4F86A00A4F868002846E666266729
:1055100007B0BDE8F0833946D8E71946D6E7082832
:1055200019D005DC58B101280CD0042831D10DE088
:10553000102815D020282ED040282AD12DE0FDF7A4
:1055400025FC01E0FDF734FC014610E06846FCF75D
:105550002BFD01990BE003A8FCF7C8FD049906E0B8
:105560001068800605D51068C0F3C100C14000294D
:10557000C6D0636A606838F81330B1FBF3F101EB11
:105580005001B1FBF0F080B2A0F1100149457FF667
:1055900067AF0125B4E73946EBE71946E9E70000B4
:1055A000F369FFCF000C0058FFF4FF110010014019
:1055B000544402580044004000480040004C004061
:1055C000005000400014014000780040007C004082
:1055D0000090D003B06F000800440258FFFC0F0099
:1055E0002DE9F0479A4617460E460446089D4FF0AF
:1055F00000094FF0200839E0681C37D0FCF7EEFBBB
:10560000A0EB0A00A84222D80DB320680168490720
:105610002CD5C069C043000528D423684FF400612D
:10562000196221680B6823F4D0730B6021688B68C2
:1056300023F001038B60C4F88080C4F88480C4F830
:10564000888000BF032084F87C90BDE8F087216843
:105650000B6823F4D0730B6021688B6823F001037F
:105660008B60C4F88080C4F88480EBE72068C06950
:1056700036EA000004D00020B842BDD00020E4E7A4
:105680000120F9E70148FEF707BE000030050024BD
:10569000FEE7090700284FEA116104DB00F1E02072
:1056A00080F80014704700F00F0000F1E02080F84F
:1056B000141D7047BFF34F8FBFF36F8F2249002037
:1056C0000860BFF34F8FBFF36F8F204A116841F41A
:1056D00000311160BFF34F8FBFF36F8F1B497031E3
:1056E0000860BFF34F8F081F43F6FF740068164D24
:1056F0001035C0F34E31C0F3C90304EA4116184611
:1057000046EA80772F60401EFAD2491EF5D2BFF3D9
:105710004F8F106840F480301060BFF34F8FBFF39D
:105720006F8FFCF769FBFFF7D3FBFEF7E7FFFEF790
:10573000A7FFFFF7A1F8FFF76BF800F023F8FEF7DB
:10574000CDFF00F03BF8FEE750EF00E014ED00E085
:1057500010B5EFF3058181B9EFF3108111B9EFF3C3
:10576000118119B106490968022906D04FF00004D9
:1057700008B100F019FE204610BD6FF00504FAE7ED
:1057800090030024EFF3058070B9EFF310800A490D
:105790000028086802D1EFF311820AB1022803D071
:1057A00028B14FF0FF3070476FF0050070470122BD
:1057B0000A600020704700009003002410B5EFF34A
:1057C000058078B9EFF310800B490028086802D1F2
:1057D000EFF311820AB1022804D0012805D04FF05E
:1057E000FF3010BD6FF0050010BD0220086000F012
:1057F00043FE002010BD0000900300242DE9FF416E
:105800004FEA01034FF00005EFF305810395B1BBAB
:10581000EFF3108111B9EFF3118119B12049096833
:1058200002293BD058B34FF080074FF018014FF0DA
:1058300000044AB3166806B1344696691EB1314673
:10584000761E382E02D21679F60703D0002004B057
:10585000BDE8F081566906B1B708D2F808C0BCF1BE
:10586000000F0DD0D5685C2D18D312693AB136B14E
:105870008DE806103A46214601F09FF903900DE0AD
:10588000D6685EB912694AB903AACDE90012BAB264
:10589000214601F065F9012800D003950398D6E769
:1058A000900300242DE9F041134C0F46054666692C
:1058B0002068001D00F046FC681C07D137B1216844
:1058C000BDE8F0410D48091D00F08EBC206835444C
:1058D000B5424560216805D2A068091DBDE8F041C8
:1058E00000F06ABC6068091D00F066FC206B854210
:1058F00000D22563BDE8F081400300249C0B002406
:105900002DE9F041054600F07BFC2D4C2D4F206920
:10591000401C2061206810B1E06930B32BE02560A5
:105920002069012827D1002606EB860007EB8000BE
:1059300000F034FC761C382EF6D3234800F02EFC01
:105940002148143000F02AFC1F48283000F026FCC3
:105950001D483C3000F022FC1B48503000F01EFC7B
:10596000194860601430A06005E0E86A2168C96ADF
:10597000814200D82560E06A401CE0626864E86A01
:10598000A169884200D9A06100EB8000291D07EBC6
:10599000800000F029FC00F053FCE06900280CD0E6
:1059A0002068E96AC06A884207D208494FF08050EF
:1059B0000860BFF34F8FBFF36F8FBDE8F081000029
:1059C00040030024EC0600244C0B002404ED00E00E
:1059D00038B500F015FC104CA068C8B90F4800F0AD
:1059E000DDFB0E48143000F0D9FB0C49002021608B
:1059F0001431616001F11403009001F1640210217F
:105A00000A2000F047FEA06010B105A100F096FC4E
:105A1000BDE8384000F014BC7C030024B00B002427
:105A2000546D72510000000030B4026C0B46002A25
:105A30000BD0D0E902411144C160A14201D30168F9
:105A4000C160184630BCFAF77EBD30BC70472DE906
:105A5000F041856B1746026C0446002682B1C7B13F
:105A6000E068FAF770FDE168206C2268091AE160CD
:105A7000914202D2A168081AE060022F16D017E006
:105A80002068A8B9A06801F03BF906460020A06094
:105A90000EE06068FAF757FDD4E90101226C10446A
:105AA0006060884204D32068606001E005B16D1E2B
:105AB0006D1CA5633046BDE8F08110B5044690F832
:105AC000590058B101280CD002280FD0502080F383
:105AD0001188BFF34F8FBFF36F8FFEE7206B00F08D
